[
  [
    "from",
    [
      {
        "address": "mszYqVnqKoQx4jcTdJXxwKAissE3Jbrrc1",
        "txId": "a477af6b2667c29670467e4e0728b685ee07b240235771862318e29ddbe58458",
        "outputIndex": 0,
        "script": "OP_DUP OP_HASH160 20 0x88d9931ea73d60eaf7e5671efc0552b912911f2a OP_EQUALVERIFY OP_CHECKSIG",
        "satoshis": 1020000
      }
    ],
    "to",
    ["mrU9pEmAx26HcbKVrABvgL7AwA5fjNFoDc", 1010000],
    "sign",
    ["cSBnVM4xvxarwGQuAfQFwqDg9k5tErHUHzgWsEfD4zdwUasvqRVY", 1],
    "serialize",
    "01000000015884e5db9de218238671572340b207ee85b628074e7e467096c267266baf77a4000000006a47304402203870bd5551a118eb85126e39952e82be050934a9c13462cbfd1b023820691ba30220578d5f42daea846e4cca7f83860d79c49a1920d58f38a03c906466fda2bd076501210223078d2942df62c45621d209fab84ea9a7a23346201b7727b9b45a29c4e76f5effffffff0150690f00000000001976a9147821c0a3768aa9d1a37e16cf76002aef5373f1a888ac0000000000"
  ],
  [
    "from",
    [
      {
        "txid": "e42447187db5a29d6db161661e4bc66d61c3e499690fe5ea47f87b79ca573986",
        "vout": 1,
        "address": "mgBCJAsvzgT2qNNeXsoECg2uPKrUsZ76up",
        "scriptPubKey": "76a914073b7eae2823efa349e3b9155b8a735526463a0f88ac",
        "amount": 0.0108
      }
    ],
    "to",
    ["mn9new5vPYWuVN5m3gUBujfKh1uPQvR9mf", 500000],
    "to",
    ["mw5ctwgEaNRbxkM4JhXH3rp5AyGvTWDZCD", 570000],
    "sign",
    ["cSQUuwwJBAg6tYQhzqqLWW115D1s5KFZDyhCF2ffrnukZxMK6rNZ", 1],
    "serialize",
    "0100000001863957ca797bf847eae50f6999e4c3616dc64b1e6661b16d9da2b57d184724e4010000006a473044022047857f444cce2e8c54c76d4a5f9a680734f331a387fc40fc088c4d684f6f25d402200d89d0c563e8f1cd00c0e820840160244432e7c957cb00dd15806bd3d59802d10121039dd446bbc85db6917f39c0b4c295b0f8cce76d1926fa76d7b84e3f7ff1c5eec5ffffffff0220a10700000000001976a91448c819246ae5645ceecd41fbe1aa6202a0a9b5ca88ac0090b20800000000001976a914aab76ba4877d696590d94ea3e02948b55294815188ac0000000000"
  ],
  [
    "from",
    [
      [
        {
          "txid": "a9db84566e0fc9351e86337d2828ab281b25ddc06fab798f6d4b5baef48c02b3",
          "vout": 0,
          "address": "mn9new5vPYWuVN5m3gUBujfKh1uPQvR9mf",
          "account": "",
          "scriptPubKey": "76a91448c819246ae5645ceecd41fbe1aa6202a0a9b5ca88ac",
          "amount": 0.005,
          "confirmations": 0
        },
        {
          "txid": "a9db84566e0fc9351e86337d2828ab281b25ddc06fab798f6d4b5baef48c02b3",
          "vout": 1,
          "address": "mw5ctwgEaNRbxkM4JhXH3rp5AyGvTWDZCD",
          "account": "",
          "scriptPubKey": "76a914aab76ba4877d696590d94ea3e02948b55294815188ac",
          "amount": 0.0057,
          "confirmations": 0
        }
      ]
    ],
    "to",
    ["mtymcCX5KixPjT1zxtg59qewBGWptj9etH", 1060000],
    "sign",
    [
      [
        "cPGbA2C54ZZ1sw4dc2ckBE1WqkdrNSbEV8Tkjhi2p1J15oErdgP2",
        "cSpyve5bXAuyHrNeV9MjTdFz3HLw739yUjjUAUSMe3ppf2qzj2hw"
      ],
      1
    ],
    "serialize",
    "0100000002b3028cf4ae5b4b6d8f79ab6fc0dd251b28ab28287d33861e35c90f6e5684dba9000000006b483045022100cc1fae21210d4705c5c9e44524c3f7da755e702b256611c526c377665aa09f2c02205a6385842e96b5c957013b80dcbe50d710ad5794db483f46b596e9ee0d67d7300121030253c73236acf5ea9085d408220141197f6094de07426bd0d32c7a543614fdd7ffffffffb3028cf4ae5b4b6d8f79ab6fc0dd251b28ab28287d33861e35c90f6e5684dba9010000006b483045022100dc1eccd6d1aa300fb7cc82525703c87bc565f38631c9f1dc9f08caabbf02ea9f02202a672a28fe28a6883d22ad072fd08460fbf7301fd5e9fc9862ed4b85b1832711012102977a001a0a7bbfd1f8a647c7d46e13e8f6920635b328390b43b3303977101149ffffffff01a02c1000000000001976a91493abf1e9e4a20c125b93f93ee39efc16b6e4bc4688ac0000000000"
  ],
  [
    "from",
    [
      {
        "address": "mgJT8iegL4f9NCgQFeFyfvnSw1Yj4M5Woi",
        "txid": "f50e13cecda9a438ebd7df213a2899e42b2461a18d4630ee773d26b4f2688bdc",
        "vout": 1,
        "scriptPubKey": "76a914089acaba6af8b2b4fb4bed3b747ab1e4e60b496588ac",
        "amount": 0.01
      }
    ],
    "to",
    ["n3riXZowrjGnY74rx7Hdi9wCyvgyJC28zZ", 990000],
    "sign",
    ["cPwWtDztEgRCMCU8pMQp4HgphvyadrAsYBrCjXUZuDSmnZkyoyNF", 1],
    "serialize",
    "0100000001dc8b68f2b4263d77ee30468da161242be499283a21dfd7eb38a4a9cdce130ef5010000006b483045022100c4f7dbca18ba553218960441e670594d3aa3561fcddd539baf3afa70e923aefd022078741b569f73702aae37ce660d584aa66dd2f3bad921492668e373d07592495a012103e26b47e7c0d8946954bf9dd4bc7f9e415437eb98271d05f69e78cef8fc6c9a54ffffffff01301b0f00000000001976a914f50f9826ef186074c6fe206cca6b71472ff07ba888ac0000000000"
  ]
]
